{
  "_format": "hh-sol-artifact-1",
  "contractName": "CertificateRegistry",
  "sourceName": "contracts/CertificateRegistry.sol",
  "abi": [
    {
      "anonymous": false,
      "inputs": [
        {
          "indexed": true,
          "internalType": "bytes32",
          "name": "certHash",
          "type": "bytes32"
        },
        {
          "indexed": false,
          "internalType": "string",
          "name": "studentName",
          "type": "string"
        },
        {
          "indexed": false,
          "internalType": "string",
          "name": "degree",
          "type": "string"
        },
        {
          "indexed": true,
          "internalType": "address",
          "name": "issuer",
          "type": "address"
        },
        {
          "indexed": false,
          "internalType": "uint256",
          "name": "timestamp",
          "type": "uint256"
        }
      ],
      "name": "CertificateIssued",
      "type": "event"
    },
    {
      "inputs": [
        {
          "internalType": "uint256",
          "name": "",
          "type": "uint256"
        }
      ],
      "name": "certificateList",
      "outputs": [
        {
          "internalType": "bytes32",
          "name": "",
          "type": "bytes32"
        }
      ],
      "stateMutability": "view",
      "type": "function"
    },
    {
      "inputs": [
        {
          "internalType": "bytes32",
          "name": "",
          "type": "bytes32"
        }
      ],
      "name": "certificates",
      "outputs": [
        {
          "internalType": "string",
          "name": "studentName",
          "type": "string"
        },
        {
          "internalType": "string",
          "name": "degree",
          "type": "string"
        },
        {
          "internalType": "address",
          "name": "issuer",
          "type": "address"
        },
        {
          "internalType": "uint256",
          "name": "issueDate",
          "type": "uint256"
        },
        {
          "internalType": "bytes32",
          "name": "certHash",
          "type": "bytes32"
        },
        {
          "internalType": "bool",
          "name": "exists",
          "type": "bool"
        }
      ],
      "stateMutability": "view",
      "type": "function"
    },
    {
      "inputs": [
        {
          "internalType": "uint256",
          "name": "index",
          "type": "uint256"
        }
      ],
      "name": "getCertificateByIndex",
      "outputs": [
        {
          "internalType": "bytes32",
          "name": "",
          "type": "bytes32"
        }
      ],
      "stateMutability": "view",
      "type": "function"
    },
    {
      "inputs": [],
      "name": "getCertificateCount",
      "outputs": [
        {
          "internalType": "uint256",
          "name": "",
          "type": "uint256"
        }
      ],
      "stateMutability": "view",
      "type": "function"
    },
    {
      "inputs": [
        {
          "internalType": "string",
          "name": "studentName",
          "type": "string"
        },
        {
          "internalType": "string",
          "name": "degree",
          "type": "string"
        },
        {
          "internalType": "bytes32",
          "name": "certHash",
          "type": "bytes32"
        }
      ],
      "name": "issueCertificate",
      "outputs": [],
      "stateMutability": "nonpayable",
      "type": "function"
    },
    {
      "inputs": [
        {
          "internalType": "bytes32",
          "name": "certHash",
          "type": "bytes32"
        }
      ],
      "name": "verifyCertificate",
      "outputs": [
        {
          "internalType": "string",
          "name": "studentName",
          "type": "string"
        },
        {
          "internalType": "string",
          "name": "degree",
          "type": "string"
        },
        {
          "internalType": "address",
          "name": "issuer",
          "type": "address"
        },
        {
          "internalType": "uint256",
          "name": "issueDate",
          "type": "uint256"
        },
        {
          "internalType": "bool",
          "name": "exists",
          "type": "bool"
        }
      ],
      "stateMutability": "view",
      "type": "function"
    }
  ],
  "bytecode": "0x608060405234801561001057600080fd5b50610a46806100206000396000f3fe608060405234801561001057600080fd5b50600436106100625760003560e01c806308f398d8146100675780630a28e90c1461007c5780633ca03fcc146100a2578063742f0688146100b5578063850c1768146100da5780638809f727146100fe575b600080fd5b61007a61007536600461070b565b610106565b005b61008f61008a366004610778565b6102cf565b6040519081526020015b60405180910390f35b61008f6100b0366004610778565b61033e565b6100c86100c3366004610778565b61035f565b604051610099969594939291906107d7565b6100ed6100e8366004610778565b6104b1565b60405161009995949392919061082d565b60015461008f565b60008181526020819052604090206005015460ff161561016d5760405162461bcd60e51b815260206004820152601a60248201527f436572746966696361746520616c72656164792065786973747300000000000060448201526064015b60405180910390fd5b60008351116101b65760405162461bcd60e51b815260206004820152601560248201527414dd1d59195b9d081b985b59481c995c5d5a5c9959605a1b6044820152606401610164565b60008251116101f95760405162461bcd60e51b815260206004820152600f60248201526e111959dc9959481c995c5d5a5c9959608a1b6044820152606401610164565b6000818152602081905260409020806102128582610904565b50600181016102218482610904565b506002810180546001600160a01b0319163390811790915542600383018190556004830184905560058301805460ff19166001908117909155805480820182556000919091527fb10e2d527612073b26eecdfd717e6a320cf44b4afac2b0732d9fcbe2b7fa0cf60184905560405184917fb3e83b59ef441b355e89ba1c1cf64fcbea183a70cda9a091f7515e6f0edd0efa916102c19189918991906109c4565b60405180910390a350505050565b60015460009082106103195760405162461bcd60e51b8152602060048201526013602482015272496e646578206f7574206f6620626f756e647360681b6044820152606401610164565b6001828154811061032c5761032c6109fa565b90600052602060002001549050919050565b6001818154811061034e57600080fd5b600091825260209091200154905081565b60006020819052908152604090208054819061037a9061087b565b80601f01602080910402602001604051908101604052809291908181526020018280546103a69061087b565b80156103f35780601f106103c8576101008083540402835291602001916103f3565b820191906000526020600020905b8154815290600101906020018083116103d657829003601f168201915b5050505050908060010180546104089061087b565b80601f01602080910402602001604051908101604052809291908181526020018280546104349061087b565b80156104815780601f1061045657610100808354040283529160200191610481565b820191906000526020600020905b81548152906001019060200180831161046457829003601f168201915b5050505060028301546003840154600485015460059095015493946001600160a01b039092169390925060ff1686565b6060806000806000806000808881526020019081526020016000206040518060c00160405290816000820180546104e79061087b565b80601f01602080910402602001604051908101604052809291908181526020018280546105139061087b565b80156105605780601f1061053557610100808354040283529160200191610560565b820191906000526020600020905b81548152906001019060200180831161054357829003601f168201915b505050505081526020016001820180546105799061087b565b80601f01602080910402602001604051908101604052809291908181526020018280546105a59061087b565b80156105f25780601f106105c7576101008083540402835291602001916105f2565b820191906000526020600020905b8154815290600101906020018083116105d557829003601f168201915b505050918352505060028201546001600160a01b03166020808301919091526003830154604080840191909152600484015460608085019190915260059094015460ff161515608090930192909252835190840151918401519284015160a090940151909b919a50919850919650945092505050565b634e487b7160e01b600052604160045260246000fd5b600082601f83011261068f57600080fd5b813567ffffffffffffffff808211156106aa576106aa610668565b604051601f8301601f19908116603f011681019082821181831017156106d2576106d2610668565b816040528381528660208588010111156106eb57600080fd5b836020870160208301376000602085830101528094505050505092915050565b60008060006060848603121561072057600080fd5b833567ffffffffffffffff8082111561073857600080fd5b6107448783880161067e565b9450602086013591508082111561075a57600080fd5b506107678682870161067e565b925050604084013590509250925092565b60006020828403121561078a57600080fd5b5035919050565b6000815180845260005b818110156107b75760208185018101518683018201520161079b565b506000602082860101526020601f19601f83011685010191505092915050565b60c0815260006107ea60c0830189610791565b82810360208401526107fc8189610791565b6001600160a01b03979097166040840152505060608101939093526080830191909152151560a09091015292915050565b60a08152600061084060a0830188610791565b82810360208401526108528188610791565b6001600160a01b0396909616604084015250506060810192909252151560809091015292915050565b600181811c9082168061088f57607f821691505b6020821081036108af57634e487b7160e01b600052602260045260246000fd5b50919050565b601f8211156108ff57600081815260208120601f850160051c810160208610156108dc5750805b601f850160051c820191505b818110156108fb578281556001016108e8565b5050505b505050565b815167ffffffffffffffff81111561091e5761091e610668565b6109328161092c845461087b565b846108b5565b602080601f831160018114610967576000841561094f5750858301515b600019600386901b1c1916600185901b1785556108fb565b600085815260208120601f198616915b8281101561099657888601518255948401946001909101908401610977565b50858210156109b45787850151600019600388901b60f8161c191681555b5050505050600190811b01905550565b6060815260006109d76060830186610791565b82810360208401526109e98186610791565b915050826040830152949350505050565b634e487b7160e01b600052603260045260246000fdfea264697066735822122058093abb442f3b2ed1f49cf728dd80ba40a5d260782f0c9fc44456a857a96a3764736f6c63430008140033",
  "linkReferences": {},
  "deployedLinkReferences": {}
}